:020000040800F2
:100000006015002029020008D10900082F07000808
:10001000CD0900086B030008B914000800000000B7
:10002000000000000000000000000000410C00087B
:100030004106000800000000610A0008590D000890
:10004000430200084302000843020008430200087C
:10005000430200084302000843020008430200086C
:10006000430200084302000843020008430200085C
:10007000430200084302000843020008430200084C
:10008000430200084302000843020008430200083C
:10009000430200084302000843020008430200082C
:1000A000430200084302000843020008430200081C
:1000B000C50D0008950E0008430200084302000821
:1000C00043020008430200084302000843020008FC
:1000D00043020008D5100008291200084302000856
:1000E00043020008430200084302000843020008DC
:1000F00043020008430200084302000843020008CC
:1001000043020008430200084302000843020008BB
:1001100043020008430200084302000843020008AB
:10012000430200084302000843020008430200089B
:10013000430200084302000843020008430200088B
:10014000430200084302000843020008430200087B
:10015000430200084302000843020008430200086B
:10016000430200084302000843020008430200085B
:10017000430200084302000843020008430200084B
:10018000430200084302000800F002F800F03CF8C7
:100190000AA090E8000C82448344AAF10107DA45E2
:1001A00001D100F031F8AFF2090EBAE80F0013F0F8
:1001B000010F18BFFB1A43F001031847A81A0000EB
:1001C000C81A0000103A24BF78C878C1FAD852077C
:1001D00024BF30C830C144BF04680C6070470000C1
:1001E0000023002400250026103A28BF78C1FBD840
:1001F000520728BF30C148BF0B6070471FB501F0E0
:100200002CFC1FBD10B510BD00F065F81146FFF7BE
:10021000F5FF01F0ADFA00F083F803B4FFF7F2FF49
:1002200003BC01F07AF900000948804709480047FB
:10023000FEE7FEE7FEE7FEE7FEE7FEE7FEE7FEE796
:10024000FEE7FEE704480549054A064B70470000F3
:100250005D0D000889010008600F00206015002076
:100260006011002060110020704710B5203AC0F0E6
:100270000B80B1E81850203AA0E81850B1E81850A7
:10028000A0E81850BFF4F5AF5FEA027C24BFB1E8E4
:100290001850A0E8185044BF18C918C0BDE8104055
:1002A0005FEA827C24BF51F8043B40F8043B08BF5E
:1002B0007047D20728BF31F8023B48BF11F8012B25
:1002C00028BF20F8023B48BF00F8012B7047704759
:1002D000704770477047754600F02CF8AE46050031
:1002E0006946534620F00700854618B020B5FFF751
:1002F000A9FFBDE820404FF000064FF000074FF087
:1003000000084FF0000B21F00701AC46ACE8C00933
:10031000ACE8C009ACE8C009ACE8C0098D4670473C
:1003200010B50446AFF300802046BDE81040FFF74B
:1003300074BF000000487047FC0E002010B5044652
:1003400001F020FB60780749087103204871002004
:1003500088710520C8710821024801F005FB0A21B7
:10036000218310BDC4050020704700BFFEE70000D8
:100370000246094B9A4201D2084801E0064810386B
:1003800001F000531BB1064B0B40C36002E0044B6D
:100390000B40836070470000106402400060024020
:1003A0007D0F7D0F21B1026842F00102026003E07F
:1003B000026822F001020260704700002DE9F0435C
:1003C0008FB004460D4616461F46DDE916891C48C7
:1003D000844204D90121880500F064FB03E0012177
:1003E000480500F05FFB204600F02CF800BF2046D7
:1003F00000F0EAF80028FAD1009501960297CDF8AE
:100400000C80CDF8109005904FF48060069000208D
:100410000790089009904FF400300A9000200B904C
:1004200003200C9000200D900E906946204600F0AD
:10043000D9F801212046FFF7B5FF0FB0BDE8F083E2
:1004400000640240016821F00101016000210160A7
:1004500041608160C1600161212141614A49884256
:1004600004D13D21484A103A91608CE04649183148
:10047000884205D14FF47461434A103A916082E09A
:1004800041493031884205D14FF474113E4A103A47
:10049000916078E03C494831884205D14FF0746161
:1004A000394A103A91606EE037496031884204D190
:1004B0003649354A103AD16065E03349783188428F
:1004C00004D13349304A103AD1605CE02E49903172
:1004D000884204D12F492C4A103AD16053E02A496E
:1004E000A831884205D14FF03D51274A103AD160DA
:1004F00049E02949884204D13D21274A083A116040
:1005000041E025491831884205D14FF47461224AEF
:10051000083A116037E020493031884205D14FF464
:1005200074111D4A083A11602DE01B494831884278
:1005300005D14FF07461184A083A116023E016495A
:100540006031884204D11149134A121F11601AE028
:1005500011497831884204D10D490F4A121F1160A8
:1005600011E00D499031884204D10A490A4A121F0C
:10057000116008E00849A831884204D14FF03D518C
:10058000054A121F11607047106002403D000020B4
:10059000400F002000003D201064024070B504466A
:1005A0000D4600212046FFF7FDFE00BF204600F06B
:1005B0000BF80028FAD12946204600F03FF8012127
:1005C0002046FFF7EFFE70BD014600200A6802F0EA
:1005D00001020AB1012000E000207047014648688E
:1005E00080B2704710B500220268134B1A40CC68E5
:1005F0000B6823434C6923438C692343CC69234311
:100600000C6A23434C6A23438C6A23434C6B234379
:100610008C6B23431A430260426922F00702D1E93E
:100620000B3423431A4342610B6943604B68836078
:100630008B68C36010BD00003F801CF041607047B4
:100640007047F0B50A4600210023002400BF3DE0BA
:10065000012505FA01F3156805EA03049C4234D12B
:1006600005684F000326BE40B543056015794E006E
:10067000B5400668354305601579012D02D015791E
:10068000022D16D185684F000326BE40B543856014
:1006900055794E00B540866835438560456801262A
:1006A0008E40B5434560456896798E40B6B2354375
:1006B0004560C5684F000326BE40B543C560D57987
:1006C0004E00B540C6683543C560491C1029BFD3EC
:1006D000F0BDF0B5002300244D07ED0E02FA05F33E
:1006E000CE1000F1200555F826504E07F70E0F26C4
:1006F000BE40B543CF1000F1200646F82750CE107B
:1007000000F1200555F8265045EA0304CE1000F10B
:10071000200545F82640F0BD0246002013690B4035
:100720000BB1012000E0002070470183704700BF3B
:10073000FEE770B505460E461446284600F00CFF4D
:1007400008B9082070BDF01FC1B2284600F014FFA0
:1007500008B90920F6E7B01EC1B2284600F0E6FE4F
:1007600008B90B20EEE7287A08B1287AEAE7E078A2
:1007700020B1287960700020E070E3E72879617883
:10078000884201D00A20DDE7207808282BD007DC3A
:1007900007282FD2DFE800F02E13181D2023260093
:1007A000832824D006DC10281ED055281DD082288E
:1007B00020D11BE092281BD093281BD119E02146A1
:1007C000284600F04EF915E02146284600F020FAB0
:1007D00010E000F0A1FE0DE000F031FA0AE0FFF7B2
:1007E000C3FD07E006E005E004E003E002E001E00D
:1007F00000E000BF00BF0020A4E7000070B5054680
:100800000C462570082D2ED007DC072D32D2DFE8EC
:1008100005F03113171B20252900832D27D006DC76
:10082000102D21D0552D20D0822D23D11EE0922DC8
:100830001ED0932D1ED11CE0204600F01DF919E0BA
:10084000204600F0C3F915E00021204600F036FEF6
:1008500010E00121204600F031FE0BE02046FFF7BA
:100860006DFD07E006E005E004E003E002E001E0E2
:1008700000E000BF00BF227E0249206900F024FF93
:1008800070BD0000C40500201CB50121112000F03E
:1008900009F91820009000208DF8040003208DF83D
:1008A000050001208DF8070069460648FFF7C9FEDC
:1008B0000120009002208DF8070069460248FFF7EA
:1008C000C0FE1CBD001002400000024010B50446EE
:1008D00014B10120234908702248007858B3102130
:1008E0002148FFF719FF50B108211F48FFF714FFF7
:1008F00028B101211D48FFF70FFF01281BD10A2055
:1009000000F0A0FE00201749087010211648FFF7DC
:1009100003FF08B9012010BD08211348FFF7FCFEB2
:1009200008B90220F7E701211048FFF7F5FE01287A
:1009300015D10420EFE710210B48FFF7EDFE012849
:100940000DD108210848FFF7E7FE012807D1012152
:100950000648FFF7E1FE10B90120024908700020A7
:10096000D9E700000600002000100240000002400D
:100970001CB50121084600F095F8C0200090012028
:100980008DF8040000208DF8060003208DF8050086
:1009900001208DF8070069460348FFF752FEC02189
:1009A0000148FFF7C2FE1CBD00000240F8B5064634
:1009B0000C46154604480470034601224121304686
:1009C000009501F02EF8F8BDD607002000BFFEE725
:1009D0007047000070B5002100230F22C4781CB3BB
:1009E000174C246804F4E064C4F5E064C4F3072100
:1009F000C1F10404E3B20A4144789C40E1B2847836
:100A0000144021430C07210E0E4C057861550478E3
:100A100004F01F050124AC4005786D11AD0005F10F
:100A2000E025C5F8004109E0047804F01F05012421
:100A3000AC40054D0678761145F8264070BD0000A3
:100A40000CED00E000E400E080E100E00249014339
:100A5000024A1160704700000000FA050CED00E04A
:100A6000704730B504460D46A17A607A00F09CFDCF
:100A70006883E17A297730BD10B5044600F082FF23
:100A800060780749087103204871002088710120AF
:100A9000C8710821024800F067FF0A21218310BDB8
:100AA000C405002029B1064A12680243044B1A60AB
:100AB00004E0034A12688243014B1A607047000049
:100AC0003038024029B1064A12680243044B1A60CA
:100AD00004E0034A12688243014B1A607047000029
:100AE00040380240F0B500210022002402250026F3
:100AF0000223324F3F6807F00C0121B1042905D0D1
:100B0000082937D105E02E4F076036E02D4F0760EA
:100B100033E02A4F3F1F3F68C7F38056274F3F1FE0
:100B20003F6807F03F036EB1264FB7FBF3F7DFF8DE
:100B30008CC0ACF1040CDCF800C0CCF3881C07FBC3
:100B40000CF40CE01E4FB7FBF3F7DFF870C0ACF10C
:100B5000040CDCF800C0CCF3881C07FB0CF4174F26
:100B60003F1F3F68C7F301477F1C7D00B4FBF5F7CB
:100B7000076002E0124F076000BF00BF0F4F3F68E1
:100B800007F0F0010909104F7A5C0768D740476009
:100B90000A4F3F6807F4E051890A0B4F7A5C4768B7
:100BA000D7408760054F3F6807F46041490B064F07
:100BB0007A5C4768D740C760F0BD00000838024043
:100BC0000024F40000127A000C00002010B5044646
:100BD00000F0D8FE60780D490871072048710020A8
:100BE00088710220C871A08A01F10902083100F061
:100BF000DFFCE08A054A0B32511E00F0D9FC0C21C3
:100C0000024800F0B1FE0E21218310BDC405002072
:100C1000F0B504460D46A179607900F0C5FC0646A2
:100C2000A98A05F11E000F18002004E000F1090157
:100C3000615C3954401C311F8142F7DCF0BD7047C4
:100C4000704700000CB50020019000903448006807
:100C500040F480303249086000BF3148006800F439
:100C6000003000900198401C0190009818B901983C
:100C7000B0F5A04FF1D12A48006800F4003010B15F
:100C80000120009001E0002000900098012846D14A
:100C900023484030006840F08050214940310860CE
:100CA0002048006840F440401E4908601C48083055
:100CB00000681B49083108600846006840F400409D
:100CC00008600846006840F4A05008601648091FF4
:100CD0000860081F006840F08070091F086000BFAE
:100CE0000F48006800F000700028F9D040F205704D
:100CF0000E4908600A480830006820F003000849DF
:100D0000083108600846006840F00200086000BF33
:100D100003480830006800F00C000828F8D10CBD2A
:100D2000003802400070004008544007003C024078
:100D3000042808D14FF0E021096941F004014FF087
:100D4000E022116107E04FF0E021096921F0040180
:100D50004FF0E022116170477047000010B5154850
:100D6000006840F47000134908601348006840F0C0
:100D700001001149086000200F49083108600E4841
:100D800000680E4908400C4908600D48091D0860BC
:100D9000081F006820F48020091F08600020064911
:100DA0000C310860FFF74EFF4FF0006001498039B9
:100DB000086010BD88ED00E000380240FFFFF6FE3D
:100DC0001030002410B50121880700F026F9012811
:100DD00026D116480088401C14490880084600881F
:100DE00002281DDD00200880FFF770FD1049087003
:100DF0000846007801280AD1012200210D48FFF79A
:100E0000D5FD012211460B48FFF7D0FD08E0084848
:100E10000078022803D1074800F081FB00E000BF02
:100E20000121880700F0EAF810BD00000200002050
:100E300000000020A80300207FB505460C460121D4
:100E40000846FFF73FFE0295ADF804400020ADF8DC
:100E50000600ADF80C0001A94FF0804000F0F8F852
:100E600001221146900700F0E9F81C208DF80000DF
:100E700003208DF8010002208DF8020001208DF87A
:100E800003006846FFF7A6FD0121880700F0B9F8C6
:100E90007FBD000070B501213D4800F0BEF801287B
:100EA00070D101246CE0C4EB041000EB4000394920
:100EB00001EB8000007A002861D1C4EB041000EB44
:100EC000400001EB8000407A002858D1C4EB0411A7
:100ED00001EB41012F4A02EB8101086900F092FC0D
:100EE00000284CD1C4EB041000EB4000294901EB71
:100EF000800000690678C4EB041000EB400001EBB1
:100F000080000069801C06EBC60100EB810090F8B0
:100F1000220021490870C4EB041101EB41011D4A74
:100F200002EB81001C490A781C4900F045FB0120B6
:100F3000C4EB041101EB4101164A02EB8101087276
:100F4000C4EB041000EB4000114601EB8000C568C3
:100F5000A88940F00800A881A88920F00400A88191
:100F60000D4802780D49284600F06FFCA88940F032
:100F70000400A881A88920F00800A88100BF641C93
:100F8000042C90DD0121024800F038F870BD00000B
:100F9000000400404002002005000020E000002086
:100FA0007FB505460C4601210220FFF78BFD029517
:100FB000ADF804400020ADF80600ADF80C0001A922
:100FC0000D4800F045F8012211460B4800F036F8B4
:100FD0001D208DF8000003208DF8010002208DF8FF
:100FE000020001208DF803006846FFF7F3FC0121A1
:100FF000014800F006F87FBD00040040CA430282A9
:10100000704721B1028842F00102028004E00288A8
:101010004FF6FE731A400280704730B5024600203A
:1010200000230024158A05EA0103958905EA0104D5
:1010300013B10CB1012000E0002030BD1AB183894A
:101040000B43838102E083898B43838170470000D7
:1010500000220288184B98420ED0184B98420BD0B1
:10106000B0F1804F08D0164B984205D0154B9842EE
:1010700002D0154B984204D14FF68F731A404B881B
:101080001A43124B984207D0114B984204D04FF6A6
:10109000FF431A400B891A4302804B68C3620B88D6
:1010A0000385054B984202D0044B984201D18B7ABC
:1010B0000386012383827047000001400004014041
:1010C0000004004000080040000C004000100040F8
:1010D0000014004070B540F22551154800F0FFF8AB
:1010E00040F22441124800F01EF9F8B1104800887F
:1010F000C5B20F488088C5B200210E48FFF752F9EB
:101100000D490C48FFF734F90C490A48FFF730F94C
:101110000B490848FFF72CF90648FFF75FFAC0F1C2
:101120000A0084B20A210348FFF738FA70BD0000B4
:101130000010014040640240008020100020081090
:101140000040101010B58AB0044601210820FFF7B6
:10115000A9FC01214804FFF7B5FC072205212E4810
:10116000FFF7B7FA01208DF826008DF8270002203E
:101170008DF824002020089002208DF8250008A971
:101180002548FFF75EFA04940020ADF81400ADF88E
:101190001600ADF81800ADF81C000C20ADF81A00D0
:1011A00004A91E4800F01AF901211C4800F0E5F8D6
:1011B00026208DF80C0003208DF80D008DF80E0010
:1011C00001208DF80F0003A8FFF704FC402113480D
:1011D00000F07CF8012240F22441104800F0D9F8D8
:1011E000012240210D4800F095F8012280210B4892
:1011F00000F090F8C8200021094B084A121DCDE9E3
:10120000001051060748FFF7D9F80121034800F004
:1012100075F80AB010BD0000000C02400044004008
:10122000120100208860024070B540F225511F482D
:1012300000F055F840F224411C4800F074F878B3EF
:101240001A480088C6B21948001D0088C6B200219D
:101250001748FFF7A7F817491548FFF789F8164907
:101260001348FFF785F81248FFF7B8F9C0F1C80036
:1012700085B2E9B2114A1248FFF75BFA04461148F9
:1012800000EBC400D0E90010491C40F100000D4AF9
:1012900002EBC402C2E90010C8210548FFF77EF93D
:1012A0000021094880F8701170BD00000044004022
:1012B000886002400088002000220020A80300204F
:1012C00012010020800000204002002001F4007282
:1012D000B2F5007F00D100BFCA430280704710B54D
:1012E0000022002340F66A14A14200D100BF0A1276
:1012F00001249440A3B2DC43048010BD21B1828953
:1013000042F40052828104E082894DF6FF731A4054
:10131000828170471AB1838A0B43838202E0838AF9
:101320008B438382704770B502460024002300255A
:10133000002040F66A16B14200D100BFC1F3421549
:1013400001F01F03012606FA03F3012D02D196894D
:10135000334006E0022D02D1168A334001E0968A1E
:1013600033400C12012606FA04F41688344013B1F7
:101370000CB1012000E0002070BD21B1828A42F052
:101380000802828204E0828A4FF6F7731A40828252
:101390007047F0B50346002400260025002040F6E3
:1013A0006A17B94200D100BF1846C1F3421401F0D8
:1013B0001F06012707FA06F5012C01D10C3004E0C5
:1013C000022C01D1103000E014301AB107682F430D
:1013D000076002E00768AF430760F0BD2DE9FF47F3
:1013E00005460E460024A14600BFA046B08900B1C4
:1013F00000BF2C8A24F44054F08804432C82AC892A
:1014000041F20C608443B0883189084371890843F4
:101410000443AC81AC8A24F44074B0890443AC82A8
:101420006846FFF75FFB2048854202D01F4885428F
:1014300002D1DDF80C9001E0DDF80890A88900F4F5
:10144000004040B109EBC90000EB091031684900C8
:10145000B0FBF1F707E009EBC90000EB09103168B8
:101460008900B0FBF1F76420B7FBF0F0040120091C
:10147000642101FB1078A88900F4004040B13220BB
:1014800000EBC800B0FBF1F000F00700044308E0F7
:10149000322000EB08106421B0FBF1F000F00F00E7
:1014A00004432C81BDE8FF87001001400014014077
:1014B000C1F308028280704700BFFEE770B50446A2
:1014C0000E4600F05FFA607812490871E08A401D0C
:1014D00085B28A1D491D284600F06AF81EB1042015
:1014E0000C49C87102E003200A49C871A08A094A60
:1014F0000932511E00F05CF8A27D06490A3160688D
:1015000000F048F8681D81B2024800F02DFAE81D8D
:10151000208370BDC4050020704700BF704710B520
:10152000044621460520FFF769F910BD70B5044651
:101530000D462A462146002000F040FA0646605D2E
:10154000F1B2884204D1681C205CB0EB162F01D0A8
:10155000002070BD0120FCE701460878FF2807D174
:101560004878FF2804D18878FD2801D1C87808B1CF
:10157000002070470120FCE770B504460D46A179B4
:10158000607900F011F80646B54201D0002070BD28
:101590000120FCE710B50346002002E01C5C0C545F
:1015A000401C9042FADB10BD024642EA012070471F
:1015B0000870030A137070472DE9F04105460C4688
:1015C00090462E69317801EBC102B11C01EB82001B
:1015D00042462146FFF7DEFF3778781CC7B20A2F54
:1015E00000D100273770E07902280AD1617A207A89
:1015F000FFF7DAFFA882E17AA07AFFF7D5FFE88249
:1016000000BF00BFBDE8F08110B504466FF00400D4
:10161000FFF78EFBE11704EB5171C1F3C701074AD5
:1016200011701046007800EB4001C1EBC0104FF67E
:10163000FF7101EAC0000249088010BD08000020C7
:101640000A00002070B504464FF4077094FBF0F0D8
:10165000C6B24FF4077094FBF0F100FB114085B265
:1016600005E04FF4077000F009F8701EC6B2002EB6
:10167000F7D115B1284600F001F870BD0146114AB6
:1016800012884A434FF0E0235A6100229A611A46B9
:10169000126942F001021A6100BF4FF0E0221069A6
:1016A00000F001021AB100F48032002AF5D04FF0A8
:1016B000E022126922F001024FF0E0231A610022B9
:1016C0009A6170470A0000202DE9F04104460D465A
:1016D00017466678701CC6B20A2E00D10026207804
:1016E000B04201D1BDE8F081607800EBC002A01CDF
:1016F00000EB82013A462846FFF74CFFE8790228C2
:1017000016D1697A287AFFF74FFF617801EBC102A1
:10171000A11C01EB8201C883E97AA87AFFF744FF94
:10172000617801EBC102A11C01EB8201088400BFBA
:1017300000BF607800EBC001A01C00EB810080F8C6
:101740002270667000BFCDE701200BE00022B521BA
:101750004143064B03EB41014A70B521414303F875
:101760001120401C0428F1DD70470000EA0700202A
:1017700000244FF4A060FFF769F9A820FFF744FFA9
:10178000FFF7F6F8FFF780F84FF41650FFF7DAFC92
:1017900000F072F800BF184890F86B010028FAD1E9
:1017A00042F2CF016320FFF747FB42F2CF016320F3
:1017B000FFF7F6FB00220121104800F0EFF80F4878
:1017C00000F02AF816E0B4F5FA7F00D10024601C7E
:1017D00084B2FA2094FBF0F100FB114038B90848BC
:1017E000006808B9012000E00020054908600120D8
:1017F000FFF728FFE7E7000040020020A8030020D1
:101800009802404201460A784B789A4201D101225F
:1018100000E000221046704710B5044692220021D5
:10182000204600F004F810BD8182C282704770B576
:1018300004460D461646324629462046FFF7F4FF79
:1018400021460220FEF7DAFF70BD2DE9F041054682
:101850000E46174600240AE0315D2846FFF728FEB1
:1018600000BF288800F040000028FAD0641CBC4269
:10187000F2DBBDE8F081000010B5FFF765FF012045
:101880002BE00121C0EB001202EB42022D4B03EBD7
:101890008202D17000EBC00101EB00112A4A02EB79
:1018A0008101C0EB001202EB420203EB82025160A5
:1018B0000021C0EB001202EB420203EB8202117224
:1018C000B5214143214A02EB4101C0EB001202EB7A
:1018D000420203EB82021161401C0428D1DD1C4945
:1018E0001848C0F8C0101B49C0F874111A49C0F854
:1018F00028121A49C0F8DC12FE2180F86911154837
:101900000C30008840F0080012490C31088008466D
:10191000008820F0040008801148FFF7ADF80A2283
:1019200010490C48FFF791FF0A480C30008840F03E
:10193000040008490C3108800846008820F008009F
:10194000088010BD40020020E2050020EA070020C8
:10195000001001400044004000480040004C00409E
:10196000A8030020C405002070B504460D462A4691
:101970002146002000F022F806466655310A681C10
:10198000215470BDFF20044908704870FD20887004
:101990000020C87070470000C4050020F8B5064656
:1019A0000C46154604480470034601224021304687
:1019B000009500F036F8F8BDD60700202DE9F0417B
:1019C000ADF5007D04460E4617464FF400720C49F3
:1019D0006846FEF74AFC00250BE0705D80EA242093
:1019E00000F0FF083DF8180080EA042084B2681C6B
:1019F00085B2BD42F1DB20460DF5007DBDE8F081EA
:101A0000641A00082DE9F04104460E4615461F46AB
:101A1000A682E582EAB238466168FFF7BBFDBDE801
:101A2000F0812DE9F04104460D4616461F46DDF8CB
:101A300018803B46324629462046FFF7E3FFB8F1BF
:101A4000000F04D021460420FEF7D8FE03E0214613
:101A50000320FEF7D3FEBDE8F0814FF04070E1EEC9
:101A6000100A7047000005800F800A001B801E00CE
:101A700014001180338036003C00398028002D800E
:101A800027802200638066006C00698078007D807A
:101A900077807200500055805F805A004B804E0066
:101AA00044004180C380C600CC00C980D800DD80DE
:101AB000D780D200F000F580FF80FA00EB80EE00C6
:101AC000E400E180A000A580AF80AA00BB80BE003A
:101AD000B400B180938096009C00998088008D802E
:101AE00087808200838186018C01898198019D8194
:101AF00097819201B001B581BF81BA01AB81AE017E
:101B0000A401A181E001E581EF81EA01FB81FE01F1
:101B1000F401F181D381D601DC01D981C801CD81E5
:101B2000C781C201400145814F814A015B815E014D
:101B300054015181738176017C01798168016D8145
:101B400067816201238126012C01298138013D81B1
:101B500037813201100115811F811A010B810E019D
:101B600004010181038306030C03098318031D8309
:101B700017831203300335833F833A032B832E03ED
:101B800024032183600365836F836A037B837E0361
:101B900074037183538356035C03598348034D8355
:101BA00047834203C003C583CF83CA03DB83DE03BD
:101BB000D403D183F383F603FC03F983E803ED83B5
:101BC000E783E203A383A603AC03A983B803BD8321
:101BD000B783B203900395839F839A038B838E030D
:101BE00084038183800285828F828A029B829E0287
:101BF00094029182B382B602BC02B982A802AD827D
:101C0000A782A202E382E602EC02E982F802FD82E8
:101C1000F782F202D002D582DF82DA02CB82CE02D4
:101C2000C402C182438246024C02498258025D824C
:101C300057825202700275827F827A026B826E0234
:101C400064026182200225822F822A023B823E02A8
:101C500034023182138216021C02198208020D829C
:101C600007820202841C0008000000201C00000003
:101C7000C4010008A01C00081C000020441500003E
:101C8000E00100080000000000000100000000006A
:101C90000000000001020304010203040607080912
:040000050800018965
:00000001FF
